{
  "contractName": "TokenPoll",
  "abi": [
    {
      "anonymous": false,
      "inputs": [
        {
          "indexed": true,
          "internalType": "address",
          "name": "sender",
          "type": "address"
        },
        {
          "indexed": false,
          "internalType": "string",
          "name": "message",
          "type": "string"
        }
      ],
      "name": "DepositToken",
      "type": "event"
    },
    {
      "inputs": [
        {
          "internalType": "string",
          "name": "message",
          "type": "string"
        },
        {
          "internalType": "address",
          "name": "tokenAddress",
          "type": "address"
        },
        {
          "internalType": "uint256",
          "name": "amount",
          "type": "uint256"
        }
      ],
      "name": "depositToken",
      "outputs": [],
      "stateMutability": "nonpayable",
      "type": "function"
    },
    {
      "inputs": [],
      "name": "getBalance",
      "outputs": [
        {
          "internalType": "uint256",
          "name": "",
          "type": "uint256"
        }
      ],
      "stateMutability": "view",
      "type": "function",
      "constant": true
    }
  ],
  "bytecode": "0x608060405273d028cf91eff3091d700f99bd855b71cdd5a0457e6000806101000a81548173ffffffffffffffffffffffffffffffffffffffff021916908373ffffffffffffffffffffffffffffffffffffffff16021790555034801561006457600080fd5b50610a08806100746000396000f3fe608060405234801561001057600080fd5b50600436106100365760003560e01c806312065fe01461003b578063f444295814610059575b600080fd5b610043610075565b60405161005091906103e2565b60405180910390f35b610073600480360381019061006e91906105e1565b61011b565b005b60008060008054906101000a900473ffffffffffffffffffffffffffffffffffffffff1690508073ffffffffffffffffffffffffffffffffffffffff166370a08231306040518263ffffffff1660e01b81526004016100d4919061065f565b602060405180830381865afa1580156100f1573d6000803e3d6000fd5b505050506040513d601f19601f82011682018060405250810190610115919061068f565b91505090565b600082905060008173ffffffffffffffffffffffffffffffffffffffff1663dd62ed3e33306040518363ffffffff1660e01b815260040161015d9291906106bc565b602060405180830381865afa15801561017a573d6000803e3d6000fd5b505050506040513d601f19601f8201168201806040525081019061019e919061068f565b9050828110156101e3576040517f08c379a00000000000000000000000000000000000000000000000000000000081526004016101da90610742565b60405180910390fd5b60008054906101000a900473ffffffffffffffffffffffffffffffffffffffff1673ffffffffffffffffffffffffffffffffffffffff168473ffffffffffffffffffffffffffffffffffffffff1614610271576040517f08c379a0000000000000000000000000000000000000000000000000000000008152600401610268906107ae565b60405180910390fd5b60278551146102b5576040517f08c379a00000000000000000000000000000000000000000000000000000000081526004016102ac9061081a565b60405180910390fd5b8173ffffffffffffffffffffffffffffffffffffffff166323b872dd3330866040518463ffffffff1660e01b81526004016102f29392919061083a565b6020604051808303816000875af1158015610311573d6000803e3d6000fd5b505050506040513d601f19601f8201168201806040525081019061033591906108a9565b610374576040517f08c379a000000000000000000000000000000000000000000000000000000000815260040161036b90610922565b60405180910390fd5b3373ffffffffffffffffffffffffffffffffffffffff167f88e5ac1b8944cd5dcfbe54eb85bf18ada8d4c4bc6d831bf872106af30e429281866040516103ba91906109b0565b60405180910390a25050505050565b6000819050919050565b6103dc816103c9565b82525050565b60006020820190506103f760008301846103d3565b92915050565b6000604051905090565b600080fd5b600080fd5b600080fd5b600080fd5b6000601f19601f8301169050919050565b7f4e487b7100000000000000000000000000000000000000000000000000000000600052604160045260246000fd5b6104648261041b565b810181811067ffffffffffffffff821117156104835761048261042c565b5b80604052505050565b60006104966103fd565b90506104a2828261045b565b919050565b600067ffffffffffffffff8211156104c2576104c161042c565b5b6104cb8261041b565b9050602081019050919050565b82818337600083830152505050565b60006104fa6104f5846104a7565b61048c565b90508281526020810184848401111561051657610515610416565b5b6105218482856104d8565b509392505050565b600082601f83011261053e5761053d610411565b5b813561054e8482602086016104e7565b91505092915050565b600073ffffffffffffffffffffffffffffffffffffffff82169050919050565b600061058282610557565b9050919050565b61059281610577565b811461059d57600080fd5b50565b6000813590506105af81610589565b92915050565b6105be816103c9565b81146105c957600080fd5b50565b6000813590506105db816105b5565b92915050565b6000806000606084860312156105fa576105f9610407565b5b600084013567ffffffffffffffff8111156106185761061761040c565b5b61062486828701610529565b9350506020610635868287016105a0565b9250506040610646868287016105cc565b9150509250925092565b61065981610577565b82525050565b60006020820190506106746000830184610650565b92915050565b600081519050610689816105b5565b92915050565b6000602082840312156106a5576106a4610407565b5b60006106b38482850161067a565b91505092915050565b60006040820190506106d16000830185610650565b6106de6020830184610650565b9392505050565b600082825260208201905092915050565b7f496e73756666696369656e7420616c6c6f77616e636500000000000000000000600082015250565b600061072c6016836106e5565b9150610737826106f6565b602082019050919050565b6000602082019050818103600083015261075b8161071f565b9050919050565b7f496e636f6d70617469626c6520746f6b656e0000000000000000000000000000600082015250565b60006107986012836106e5565b91506107a382610762565b602082019050919050565b600060208201905081810360008301526107c78161078b565b9050919050565b7f496e76616c69642061646472657373206c656e67746800000000000000000000600082015250565b60006108046016836106e5565b915061080f826107ce565b602082019050919050565b60006020820190508181036000830152610833816107f7565b9050919050565b600060608201905061084f6000830186610650565b61085c6020830185610650565b61086960408301846103d3565b949350505050565b60008115159050919050565b61088681610871565b811461089157600080fd5b50565b6000815190506108a38161087d565b92915050565b6000602082840312156108bf576108be610407565b5b60006108cd84828501610894565b91505092915050565b7f4552433230207472616e73666572206661696c65640000000000000000000000600082015250565b600061090c6015836106e5565b9150610917826108d6565b602082019050919050565b6000602082019050818103600083015261093b816108ff565b9050919050565b600081519050919050565b60005b8381101561096b578082015181840152602081019050610950565b60008484015250505050565b600061098282610942565b61098c81856106e5565b935061099c81856020860161094d565b6109a58161041b565b840191505092915050565b600060208201905081810360008301526109ca8184610977565b90509291505056fea2646970667358221220ea41efb3a8888b3ad69913171f007d5f4d29dcb410848f4037f38a0c08bd2f7964736f6c63430008130033",
  "immutableReferences": {},
  "source": "// SPDX-License-Identifier: MIT\n\npragma solidity ^0.8.0;\n\ninterface IERC20 {\n    function transferFrom(address sender, address recipient, uint256 amount) external returns (bool);\n    function balanceOf(address account) external view returns (uint256);\n    function approve(address spender, uint256 amount) external returns (bool);\n    function allowance(address owner, address spender) external view returns (uint256);\n}\n\ncontract TokenPoll {\n    address tokenContractAddress = 0xD028CF91EfF3091D700f99Bd855b71CDD5a0457e;\n    event DepositToken(address indexed sender, string message);\n\n    function depositToken(string memory message, address tokenAddress, uint amount) public {\n\n        IERC20 token = IERC20(tokenAddress);\n        uint allowance = token.allowance(msg.sender, address(this));\n        require(allowance >= amount, \"Insufficient allowance\");\n        // validate token address\n        require(tokenAddress == tokenContractAddress, \"Incompatible token\");\n        require(bytes(message).length == 39, \"Invalid address length\");\n        require(token.transferFrom(msg.sender, address(this), amount), \"ERC20 transfer failed\");\n        emit DepositToken(msg.sender, message);\n    }\n\n    // function VerifyMessage(bytes32 _hashedMessage, uint8 _v, bytes32 _r, bytes32 _s) public pure returns (address) {\n    //     bytes memory prefix = \"\\x19Ethereum Signed Message:\\n32\";\n    //     bytes32 prefixedHashMessage = keccak256(abi.encodePacked(prefix, _hashedMessage));\n    //     address signer = ecrecover(prefixedHashMessage, _v, _r, _s);\n    //     return signer;\n    // }\n\n    function getBalance() public view returns (uint256) {\n        IERC20 token = IERC20(tokenContractAddress);\n        return token.balanceOf(address(this));\n    }\n\n}\n",
  "sourcePath": "/Users/monaka/program/node/symbol/swap/contracts/TokenPoll.sol",
  "compiler": {
    "name": "solc",
    "version": "0.8.19+commit.7dd6d404.Emscripten.clang"
  },
  "schemaVersion": "3.4.13",
  "updatedAt": "2023-03-27T12:51:39.381Z",
  "networkType": "ethereum",
  "devdoc": {
    "kind": "dev",
    "methods": {},
    "version": 1
  },
  "userdoc": {
    "kind": "user",
    "methods": {},
    "version": 1
  }
}