{
  "contractName": "TokenSender",
  "abi": [
    {
      "inputs": [],
      "name": "sendToken",
      "outputs": [],
      "stateMutability": "nonpayable",
      "type": "function"
    }
  ],
  "bytecode": "0x608060405273d028cf91eff3091d700f99bd855b71cdd5a0457e6000806101000a81548173ffffffffffffffffffffffffffffffffffffffff021916908373ffffffffffffffffffffffffffffffffffffffff16021790555034801561006457600080fd5b506102f7806100746000396000f3fe608060405234801561001057600080fd5b506004361061002b5760003560e01c8063b8972db514610030575b600080fd5b61003861003a565b005b60008060009054906101000a900473ffffffffffffffffffffffffffffffffffffffff1690508073ffffffffffffffffffffffffffffffffffffffff1663a9059cbb33600a6040518363ffffffff1660e01b815260040161009c9291906101b1565b6020604051808303816000875af11580156100bb573d6000803e3d6000fd5b505050506040513d601f19601f820116820180604052508101906100df9190610217565b61011e576040517f08c379a0000000000000000000000000000000000000000000000000000000008152600401610115906102a1565b60405180910390fd5b50565b600073ffffffffffffffffffffffffffffffffffffffff82169050919050565b600061014c82610121565b9050919050565b61015c81610141565b82525050565b6000819050919050565b6000819050919050565b6000819050919050565b600061019b61019661019184610162565b610176565b61016c565b9050919050565b6101ab81610180565b82525050565b60006040820190506101c66000830185610153565b6101d360208301846101a2565b9392505050565b600080fd5b60008115159050919050565b6101f4816101df565b81146101ff57600080fd5b50565b600081519050610211816101eb565b92915050565b60006020828403121561022d5761022c6101da565b5b600061023b84828501610202565b91505092915050565b600082825260208201905092915050565b7f546f6b656e207472616e73666572206661696c65640000000000000000000000600082015250565b600061028b601583610244565b915061029682610255565b602082019050919050565b600060208201905081810360008301526102ba8161027e565b905091905056fea2646970667358221220315af4a4bdd1e3f9127888e0be38478d0c8077f6a57298fed4dfe0a14d262e4964736f6c63430008130033",
  "immutableReferences": {},
  "source": "pragma solidity ^0.8.0;\n\ninterface ERC20 {\n    function transfer(address to, uint256 value) external returns (bool);\n}\n\ncontract TokenSender {\n    address tokenAddress = 0xD028CF91EfF3091D700f99Bd855b71CDD5a0457e;\n\n    function sendToken() external {\n        ERC20 token = ERC20(tokenAddress);\n        require(token.transfer(msg.sender, 10), \"Token transfer failed\");\n    }\n}\n",
  "sourcePath": "/Users/monaka/program/node/symbol/swap/contracts/TokenSender.sol",
  "compiler": {
    "name": "solc",
    "version": "0.8.19+commit.7dd6d404.Emscripten.clang"
  },
  "schemaVersion": "3.4.13",
  "updatedAt": "2023-03-27T14:07:52.392Z",
  "devdoc": {
    "kind": "dev",
    "methods": {},
    "version": 1
  },
  "userdoc": {
    "kind": "user",
    "methods": {},
    "version": 1
  }
}